## 1	GOD安装方式1. linux或者unix安装2. Mac安装 ### 1.1	安装准备#### 1.1.1	linux或者unix安装准备安装git			apt-get install git		安装依赖(ubuntu)		sudo apt-get update 	sudo apt-get install build-essential libtool autotools-dev automake pkg-config libssl-dev libevent-dev bsdmainutils	sudo apt-get install libboost-all-dev	sudo apt-get install software-properties-common	sudo add-apt-repository ppa:bitcoin/bitcoin	sudo apt-get update	sudo apt-get install libdb4.8-dev libdb4.8++-dev	sudo apt-get install libminiupnpc-dev#### 1.1.2	mac安装准备安装 OS X 命令行工具包:xcode-select --install 出现弹窗时, 点击 Install . 安装 [Homebrew](https://brew.sh/).安装git	brew install git安装依赖:			brew install automake berkeley-db4 libtool boost --c++11 miniupnpc openssl pkg-config protobuf libevent### 1.2 构建 Bitcoin God Core1.下载 the GOD source code 并且进入bitcoin 目录		git clone https://github.com/tokengod/godcoind.git 	cd godcoind 2.构建 Bitcoin God Core: conﬁgure时，--without-gui 		./autogen.sh 	./configure --without-gui 	make 	make install### 1.3	启动GODGOD核心现在已经可用。在运行第一次GOD核心之前,请创建rpc配置文件,如下为MAC	echo -e "rpcuser=用户名\nrpcpassword=密码" > "/Users/${USER}/Library/Application Sup port/Bitcoin/bitcoin.conf"	chmod 600 "/Users/${USER}/Library/Application Support/Bitcoin/bitcoin.conf"

如下为Linux	echo -e "rpcuser=用户名\nrpcpassword=密码" > "/${USER}/.bitcoin/bitcoin.conf"	chmod 600 "/${USER}/.bitcoin/bitcoin.conf"

**注意**：${USER}为当前MAC/Linux系统使用账户，如root; rpcuser和rpcpassword为本地RPC调用时用到的口令，可以随意设置，使用时候按此配置即可。	运行GOD		bitcoingodd -daemon第一次你运行GOD时，会开始同步区块链，这个过程可能花费几个小时甚至更长。 在debug.log中，你可以看到下载进度		tail -f 数据目录/debug.log
	
**注意**：如果启动bitcoingodd不指定datadir，则debug.log文件默认与bitcoin.conf文件在同一目录。	------------------------------------------------------------------------------------ ## 2	GOD控制台常用命令### 2.1	服务关停及帮助命令- bitcoingodd -datadir={自己的目录} -conf={自己的config文件所在路径} -daemon 			bitcoingodd -datadir=/bitcoin/datadir -conf=/bitcoin/datadir/bitcoin.conf -daemon	 - bitcoingodd -daemon # 后台运行bitcoingodd,第一次启动如指定datadir和conf，则后续每次启动均需指定；如果不指定，则默认为上述bitcoin.conf所在目录。- bitcoingod-cli --help # 输出命令行选项### 2.2	查看信息常用命令- bitcoingod-cli getinfo #获取当前状态信息- bitcoingod-cli getblockhash {height} #根据区块高度获取该区块的hash ``` bitcoingod-cli getblockhash 200 返回：000000008f1a7008320c16b8402b7f11e82951f44ca2663caf6860ab2eeef320```- bitcoingod-cli getblock {block hash} #根据区块的hash获取该区块的信息```bitcoingod-cli getblock 000000008f1a7008320c16b8402b7f11e82951f44ca2663caf6860ab2eeef320 返回：{  "hash": "000000008f1a7008320c16b8402b7f11e82951f44ca2663caf6860ab2eeef320",  "confirmations": 508419,  "strippedsize": 215,  "size": 215,  "weight": 860,  "height": 200,  "version": 1,  "versionHex": "00000001",  "merkleroot": "2b1f06c2401d3b49a33c3f5ad5864c0bc70044c4068f9174546f3cfc1887d5ba",  "tx": [    "2b1f06c2401d3b49a33c3f5ad5864c0bc70044c4068f9174546f3cfc1887d5ba"  ],  "time": 1231753120,  "mediantime": 1231749225,  "nonce": 1832536838,  "bits": "1d00ffff",  "difficulty": 1,  "chainwork": "000000000000000000000000000000000000000000000000000000c900c900c9",  "previousblockhash": "00000000b7691ccc084542565697eca256e56bb7f67e560b48789db27f0468eb",  "nextblockhash": "000000002b50d5963806b024fa09d296a3d8762713536eba9e5bdfa7596f814a"}```- bitcoingod-cli getbestblockhash #获取最新的block hash```bitcoingod-cli getbestblockhash返回 3a7dbefaaf407ff0a6af4aafa18c23481aca2639f7965148ebdf324f43523f5b```- bitcoingod-cli getrawtransaction {交易ID} #根据交易ID获取该交易的rawtransaction```bitcoingod-cli getrawtransaction 513eadc172b6dc6cd49f3fd5abaadc8e2d700037dcd0b8792800ad6e4334a58e返回：0200000001639b16d2fbf6d9891e7da0323c8dc331c81bd258c655cbd6a8a34542377e8fa2010000004847304402206d324858f88f7996827cb26c23e79a1b05d4980c78b72c07fdd35599ad789f6802200565e8339cb7d8dec1963c207e6072a0083240857e46e2075eaa69a96849586641ffffffff02000000000000000000a0c0fc05690100002321024be3215fa688f1683eeaf48962bbcdd01e2d4fb0b7546fb673c0be947571e743ac00000000```- bitcoingod-cli decoderawtransation {getrawtransaction 返回的数据} #根据getrawtransaction返回的编码解析为用户可读的交易信息```bitcoingod-cli decoderawtransation 0200000001639b16d2fbf6d9891e7da0323c8dc331c81bd258c655cbd6a8a34542377e8fa2010000004847304402206d324858f88f7996827cb26c23e79a1b05d4980c78b72c07fdd35599ad789f6802200565e8339cb7d8dec1963c207e6072a0083240857e46e2075eaa69a96849586641ffffffff02000000000000000000a0c0fc05690100002321024be3215fa688f1683eeaf48962bbcdd01e2d4fb0b7546fb673c0be947571e743ac00000000返回：{  "txid": "513eadc172b6dc6cd49f3fd5abaadc8e2d700037dcd0b8792800ad6e4334a58e",  "hash": "513eadc172b6dc6cd49f3fd5abaadc8e2d700037dcd0b8792800ad6e4334a58e",  "version": 2,  "size": 176,  "vsize": 176,  "locktime": 0,  "vin": [    {      "txid": "a28f7e374245a3a8d6cb55c658d21bc831c38d3c32a07d1e89d9f6fbd2169b63",      "vout": 1,      "scriptSig": {        "asm": "304402206d324858f88f7996827cb26c23e79a1b05d4980c78b72c07fdd35599ad789f6802200565e8339cb7d8dec1963c207e6072a0083240857e46e2075eaa69a968495866[ALL|FORKID]",        "hex": "47304402206d324858f88f7996827cb26c23e79a1b05d4980c78b72c07fdd35599ad789f6802200565e8339cb7d8dec1963c207e6072a0083240857e46e2075eaa69a96849586641"      },      "sequence": 4294967295    }  ],  "vout": [    {      "value": 0.00000000,      "n": 0,      "scriptPubKey": {        "asm": "",        "hex": "",        "type": "nonstandard"      }    },     {      "value": 15505.83644320,      "n": 1,      "scriptPubKey": {        "asm": "024be3215fa688f1683eeaf48962bbcdd01e2d4fb0b7546fb673c0be947571e743 OP_CHECKSIG",        "hex": "21024be3215fa688f1683eeaf48962bbcdd01e2d4fb0b7546fb673c0be947571e743ac",        "reqSigs": 1,        "type": "pubkey",        "addresses": [          "oRuuBD4HkT3Y3FVxzdWsgftTvayN4e97QA"        ]      }    }  ]}```### 2.3	钱包相关命令- bitcoingod-cli gettransaction {交易ID} #根据交易ID获取该交易的信息，该命令只支持钱包交易返回的ID- bitcoingod-cli getbalance #获取当前钱包的余额- bitcoingod-cli getaddressesbyaccount '' #获取某一账户下的地址```bitcoingod-cli getaddressesbyaccount ''[  "oBpeheLoCUEUR8z62XypQBimj9BmvwP4PR",   "oGD3NVmtNFVNJBULws5uvjXVE3YjreDmd1",   "oHCuTdeSUjMYGS5v8GvPrr7BfnJQVdPq5D",   "oNMgUxPkFicQ44jeKZeDDohiZkhgziNh2v"]```- bitcoingod-cli getnewaddress #获取当前的钱包的新地址```bitcoingod-cli getnewaddress返回：o97SFBs8nrF7KB1xyzo1aeDJKGZcQegs8D```- bitcoingod-cli sendtoaddress {要转账的地址} {转账金额} #转账```bitcoingod-cli sendtoaddress o97SFBs8nrF7KB1xyzo1aeDJKGZcQegs8D 10表示转账10个币到o97SFBs8nrF7KB1xyzo1aeDJKGZcQegs8D返回转账的交易ID，可用于gettransaction命令的参数```- bitcoingod-cli dumpwallet {备份的文件全路径} #备份该钱包```bitcoingod-cli dumpwallet /tmp/mywallet.dat#表示备份当前钱包文件到tmp目录下的mywallet.dat文件```- bitcoingod-cli importwallet {导入文件的全路径} #合并钱包```bitcoingod-cli importwallet /tmp/mywallet.dat表示合并mywallet的钱包到当前钱包```### 2.4	挖矿命令- bitcoingod-cli generatepos #手动挖矿,可能需要等待一段时间才会返回挖矿状态。	```bitcoingod-cli generatepos 挖矿成功:{"blockhash":"849ffd63e4bbd5b21d8b8a10f47c2b2836fac1eae3467eabb81d8e8d0756e6e3"}挖矿失败:{}```	