## 1	GOD安装方式1. Windows安装 ### 1.1	安装配置- 下载god_win.zip 安装包- 解压，打开该目录，找到bitcoin.conf文件并打开- 找到rpcuser，rpcpassword，这是rpc访问的用户名和密码，可以修改为自己的用户名和密码，修改完config文件之后，找到C:\Users\{用户}\AppData\Roaming\Bitcoin，并复制一份到该目录下，如Bitcoin目录不存在，则需要新建该目录（该目录下存放conf文件，主要为了方便用户使用命令的时候不用带用户名和密码参数，可以不配置）- 选择一个硬盘空间大于150G的盘，然后copy god_win 到该盘，创建目录（名称可以自己选定）### 1.3	启动GOD- 打开windows – 运行 – cmd- 进入god_win 目录，例如：该目录为：F:/god_win，对应命令：F: (回车，切换至F盘)，cd god_win（回车，进入god_win 目录）- 执行命令 ( .\bitcoingodd.exe -datadir={自己的目录} -conf={自己的config文件所在路径} -printtoconsole -debug=0 )		例如：		.\bitcoingodd.exe -datadir=F:\god_win\datadir\ -conf=F:\god_win\bitcoin.conf -printtoconsole -debug=0		（开始同步）运行GOD- 如果没有同步完想要停止，请从新打开一个cmd并进入该目录执行 ( .\bitcoingod-cli.exe stop )	------------------------------------------------------------------------------------ ## 2	GOD控制台常用命令### 2.1	服务关停及帮助命令- .\bitcoingodd.exe -datadir={自己的目录} -conf={自己的config文件所在路径} -printtoconsole -debug=0 			.\bitcoingodd.exe -datadir=F:\god_win\datadir\ -conf=F:\god_win\bitcoin.conf -printtoconsole -debug=0- .\bitcoingod-cli.exe --help # 输出命令行选项### 2.2	查看信息常用命令- .\bitcoingod-cli.exe getinfo #获取当前状态信息- .\bitcoingod-cli.exe getblockhash {height} #根据区块高度获取该区块的hash ``` .\bitcoingod-cli.exe getblockhash 200 返回：000000008f1a7008320c16b8402b7f11e82951f44ca2663caf6860ab2eeef320```- .\bitcoingod-cli.exe getblock {block hash} #根据区块的hash获取该区块的信息```.\bitcoingod-cli.exe getblock 000000008f1a7008320c16b8402b7f11e82951f44ca2663caf6860ab2eeef320 返回：{  "hash": "000000008f1a7008320c16b8402b7f11e82951f44ca2663caf6860ab2eeef320",  "confirmations": 508419,  "strippedsize": 215,  "size": 215,  "weight": 860,  "height": 200,  "version": 1,  "versionHex": "00000001",  "merkleroot": "2b1f06c2401d3b49a33c3f5ad5864c0bc70044c4068f9174546f3cfc1887d5ba",  "tx": [    "2b1f06c2401d3b49a33c3f5ad5864c0bc70044c4068f9174546f3cfc1887d5ba"  ],  "time": 1231753120,  "mediantime": 1231749225,  "nonce": 1832536838,  "bits": "1d00ffff",  "difficulty": 1,  "chainwork": "000000000000000000000000000000000000000000000000000000c900c900c9",  "previousblockhash": "00000000b7691ccc084542565697eca256e56bb7f67e560b48789db27f0468eb",  "nextblockhash": "000000002b50d5963806b024fa09d296a3d8762713536eba9e5bdfa7596f814a"}```- .\bitcoingod-cli.exe getbestblockhash #获取最新的block hash```.\bitcoingod-cli.exe getbestblockhash返回 3a7dbefaaf407ff0a6af4aafa18c23481aca2639f7965148ebdf324f43523f5b```- .\bitcoingod-cli.exe getrawtransaction {交易ID} #根据交易ID获取该交易的rawtransaction```.\bitcoingod-cli.exe getrawtransaction 513eadc172b6dc6cd49f3fd5abaadc8e2d700037dcd0b8792800ad6e4334a58e返回：0200000001639b16d2fbf6d9891e7da0323c8dc331c81bd258c655cbd6a8a34542377e8fa2010000004847304402206d324858f88f7996827cb26c23e79a1b05d4980c78b72c07fdd35599ad789f6802200565e8339cb7d8dec1963c207e6072a0083240857e46e2075eaa69a96849586641ffffffff02000000000000000000a0c0fc05690100002321024be3215fa688f1683eeaf48962bbcdd01e2d4fb0b7546fb673c0be947571e743ac00000000```- .\bitcoingod-cli.exe decoderawtransation {getrawtransaction 返回的数据} #根据getrawtransaction返回的编码解析为用户可读的交易信息```.\bitcoingod-cli.exe decoderawtransation 0200000001639b16d2fbf6d9891e7da0323c8dc331c81bd258c655cbd6a8a34542377e8fa2010000004847304402206d324858f88f7996827cb26c23e79a1b05d4980c78b72c07fdd35599ad789f6802200565e8339cb7d8dec1963c207e6072a0083240857e46e2075eaa69a96849586641ffffffff02000000000000000000a0c0fc05690100002321024be3215fa688f1683eeaf48962bbcdd01e2d4fb0b7546fb673c0be947571e743ac00000000返回：{  "txid": "513eadc172b6dc6cd49f3fd5abaadc8e2d700037dcd0b8792800ad6e4334a58e",  "hash": "513eadc172b6dc6cd49f3fd5abaadc8e2d700037dcd0b8792800ad6e4334a58e",  "version": 2,  "size": 176,  "vsize": 176,  "locktime": 0,  "vin": [    {      "txid": "a28f7e374245a3a8d6cb55c658d21bc831c38d3c32a07d1e89d9f6fbd2169b63",      "vout": 1,      "scriptSig": {        "asm": "304402206d324858f88f7996827cb26c23e79a1b05d4980c78b72c07fdd35599ad789f6802200565e8339cb7d8dec1963c207e6072a0083240857e46e2075eaa69a968495866[ALL|FORKID]",        "hex": "47304402206d324858f88f7996827cb26c23e79a1b05d4980c78b72c07fdd35599ad789f6802200565e8339cb7d8dec1963c207e6072a0083240857e46e2075eaa69a96849586641"      },      "sequence": 4294967295    }  ],  "vout": [    {      "value": 0.00000000,      "n": 0,      "scriptPubKey": {        "asm": "",        "hex": "",        "type": "nonstandard"      }    },     {      "value": 15505.83644320,      "n": 1,      "scriptPubKey": {        "asm": "024be3215fa688f1683eeaf48962bbcdd01e2d4fb0b7546fb673c0be947571e743 OP_CHECKSIG",        "hex": "21024be3215fa688f1683eeaf48962bbcdd01e2d4fb0b7546fb673c0be947571e743ac",        "reqSigs": 1,        "type": "pubkey",        "addresses": [          "oRuuBD4HkT3Y3FVxzdWsgftTvayN4e97QA"        ]      }    }  ]}```### 2.3	钱包相关命令- .\bitcoingod-cli.exe gettransaction {交易ID} #根据交易ID获取该交易的信息，该命令只支持钱包交易返回的ID- .\bitcoingod-cli.exe getbalance #获取当前钱包的余额- .\bitcoingod-cli.exe getaddressesbyaccount '' #获取某一账户下的地址```.\bitcoingod-cli.exe getaddressesbyaccount ''[  "oBpeheLoCUEUR8z62XypQBimj9BmvwP4PR",   "oGD3NVmtNFVNJBULws5uvjXVE3YjreDmd1",   "oHCuTdeSUjMYGS5v8GvPrr7BfnJQVdPq5D",   "oNMgUxPkFicQ44jeKZeDDohiZkhgziNh2v"]```- .\bitcoingod-cli.exe getnewaddress #获取当前的钱包的新地址```.\bitcoingod-cli.exe getnewaddress返回：o97SFBs8nrF7KB1xyzo1aeDJKGZcQegs8D```- .\bitcoingod-cli.exe sendtoaddress {要转账的地址} {转账金额} #转账```.\bitcoingod-cli.exe sendtoaddress o97SFBs8nrF7KB1xyzo1aeDJKGZcQegs8D 10表示转账10个币到o97SFBs8nrF7KB1xyzo1aeDJKGZcQegs8D返回转账的交易ID，可用于gettransaction命令的参数```- .\bitcoingod-cli.exe dumpwallet {备份的文件全路径} #备份该钱包```.\bitcoingod-cli.exe dumpwallet /tmp/mywallet.dat#表示备份当前钱包文件到tmp目录下的mywallet.dat文件```- .\bitcoingod-cli.exe importwallet {导入文件的全路径} #合并钱包```.\bitcoingod-cli.exe importwallet /tmp/mywallet.dat表示合并mywallet的钱包到当前钱包```### 2.4	挖矿命令- .\bitcoingod-cli.exe generatepos #手动挖矿,可能需要等待一段时间才会返回挖矿状态。	```.\bitcoingod-cli.exe generatepos 挖矿成功:{"blockhash":"849ffd63e4bbd5b21d8b8a10f47c2b2836fac1eae3467eabb81d8e8d0756e6e3"}挖矿失败:{}```	